:020000040800F2
:10000000580C0020DD0100082D17000839120008E7
:10001000111700081F0D0008D1390008000000006A
:100020000000000000000000000000004501000882
:10003000171000080000000089010008492400088A
:10004000F7010008F7010008F7010008F7010008B0
:10005000F7010008F7010008F7010008F7010008A0
:10006000F7010008F7010008F7010008F701000890
:10007000F7010008F7010008F7010008F701000880
:10008000F7010008F7010008F7010008F701000870
:10009000F7010008F7010008F7010008F701000860
:1000A000F7010008F7010008F7010008F701000850
:1000B000F7010008AD25000815270008F701000822
:1000C000F7010008F7010008F7010008F701000830
:1000D000F7010008E9280008F7010008F701000807
:1000E000F7010008F7010008F7010008F701000810
:1000F000F7010008F7010008F7010008F701000800
:10010000F7010008F7010008F7010008F7010008EF
:10011000F7010008F7010008F7010008F7010008DF
:10012000F7010008F7010008F7010008F7010008CF
:10013000DFF80CD000F0E2FB004800479D3C0008CF
:10014000580C0020224B19680868B0E8F00F80F3C3
:100150000988BFF36F8F4FF0000080F311884EF0D5
:100160000D0E70470000000006480068006880F32C
:10017000088862B661B6BFF34F8FBFF36F8F00DFA1
:1001800000BF00BF08ED00E0EFF30980BFF36F8F01
:100190000F4B1A6820E9F00F106008B54FF0BF0050
:1001A00080F31188BFF34F8FBFF36F8F03F050FEC2
:1001B0004FF0000080F31188BDE808401968086816
:1001C000B0E8F00F80F30988BFF36F8F704700BF6E
:1001D00060000020EFF3058070470000064880476C
:1001E00006480047FEE7FEE7FEE7FEE7FEE7FEE71C
:1001F000FEE7FEE7FEE7FEE7752400083101000890
:10020000F0B480EA0102D40F4200B2EB410F02D2F7
:100210000246084611464A0042D0C30DDDB2C1F382
:10022000C752AD1A202D35DAC1F3160141F4000290
:1002300004B15242C5F1200602FA06F12A411044E7
:10024000B3EBD05F23D0C4B1012DA0EBC35009DCC8
:10025000F0BC4FF0004202EAC352DBB200F50000EE
:1002600000F0C0BA400000F1807000EBC350A0F174
:10027000807040EAD170490009E0490841EAC07144
:10028000A0EBC35000F50000400800EBC350F0BCE9
:1002900000F09FBA6142012202EB4101001BF6E728
:1002A000F0BC704781F00041AAE780F00040A7E76A
:1002B00080EA010210B502F00043400022D04A005B
:1002C0001FD0010E01EB1261C0F35600C2F35602BB
:1002D00040F4000042F40002A0FB022000047F3939
:1002E000140400D0401C50EA124001D44000491EC2
:1002F000C2B20C0604EBD010401C4008802A02D089
:1003000003E0002010BD20F00100002900DA0020E9
:10031000184310BD2DE9FE4F804681EA0300C00F4F
:100320000C46009021F0004123F00045B8EB02009C
:10033000A94105D24046214690461C460B4602463E
:1003400023F00040104347D0270DC7F30A00C3F342
:100350000A510290401A019040286BDAC3F313004F
:1003600040F4801B0098924620B10023D2EB030A90
:1003700063EB0B0B01985946C0F14002504600F068
:10038000F7F906460D4650465946019A00F00FFA15
:1003900010EB08006141002487EA115284EAE773F8
:1003A0001A4340D0009A62B3019A012A4FEA0752D9
:1003B00015DC001B61EB02014FF0004202EA07521C
:1003C000CDE90042001C41F5801132462B4600F079
:1003D00046FA03B0BDE8F08F40462146F9E7001B1E
:1003E00061EB0201001C41F5801300185B412018ED
:1003F000A2F5001747EB030140EAD570B6196D412D
:1004000011E06D084FEA360645EAC0754FEA07521B
:10041000001B61EB0201001C41F5801149084FEA05
:1004200030000019514132462B4603B0BDE8F04F71
:1004300000F006BA0098012240000023D0EB02022F
:1004400063EBE073009821464FEAE074B8EB0000DC
:1004500061EB0401E9E783F000435BE781F00041D1
:1004600058E72DE9FE4F81EA030404F0004421F02F
:10047000004100944FF0000B23F0004350EA0104C8
:100480005ED052EA03045BD0C3F30A54C1F30A55A9
:100490002C44A4F2F3340194A0FB0254C1F31301E1
:1004A00041F48011C3F3130343F4801301FB0244AE
:1004B00000FB034E840A970A44EA815447EA8357B3
:1004C000A4FB076802958D0A05FB07854FEA932C6C
:1004D00004FB0C542705029D4FEA065847EA1637DD
:1004E000B5EB08056EEB070C870E920E47EA8117F5
:1004F00042EA8312A7FB0201B6EB0B0164EB000496
:100500002B0D43EA0C335E1844EB1C50DA4651467F
:10051000E7FB0201C5F313044FEA0B3343EA14531C
:100520004FEA0432019C43EA0603A4F10C0402944E
:10053000009CCDE900B400F092F903B0BDE8F08F63
:1005400000200146F9E72DE9F04D81EA030404F0AB
:10055000004B21F0004514464FF0000A23F0004103
:1005600050EA050220D054EA01021DD0C5F30A5713
:100570000246C5F31303C1F31300C1F30A5640F456
:10058000801543F48013A7EB0608101BD64608F22B
:10059000FD3873EB050002D308F1010801E0921861
:1005A0005B41B8F1000F03DA00200146BDE8F08D91
:1005B00000204FF48011064684460EE0171B73EBB3
:1005C000050705D3121B63EB050306434CEA010C38
:1005D00049084FEA300092185B4150EA0107EDD11B
:1005E00052EA030012D082EA040083EA05010843BC
:1005F00005D0101BAB4106D20122002306E00022E9
:100600004FF0004302E06FF0010253101AEB0600B6
:100610004CEB085110EB0A0041EB0B01BDE8F04D2B
:1006200000F00EB9C10F80EAE0700844CA079623B3
:10063000002100F0D7B896230022114600F0D2B86E
:100640000EB540F2334102910021CDE900110A4676
:100650000B4600F004F903B000BD00F0004220F0AA
:100660000040C10DC0F3160040F400007F2901DAFC
:1006700000207047962903DCC1F19601C84001E0D3
:1006800096398840002AF4D04042704720F000405C
:10069000C10DC0F3160040F400007F2901DA0020EC
:1006A0007047962903DCC1F19601C840704796391E
:1006B00088407047C1F30A5210B5C1F3130140F2EC
:1006C000FF3341F480119A4201DA002010BD40F25C
:1006D00033439A42A2F2334203DC524200F057F80D
:1006E00010BD904010BD00F0004230F000400AD034
:1006F000C10D01F56071C0F3160042EA0151C20854
:1007000040071143704700200146704701F0004345
:1007100030B421F0004150EA010206D00A0DA2F5E2
:100720006072C1F31301002A02DC30BC0020704764
:10073000440F44EAC104C100E01830BC00EBC250D1
:1007400000F047B830B50B460146002020220124B6
:1007500009E021FA02F59D4205D303FA02F5491B8F
:1007600004FA02F52844151EA2F10102F1DC30BDA5
:10077000202A04DB203A00FA02F100207047914061
:10078000C2F1200320FA03F3194390407047202A56
:1007900004DB203A21FA02F00021704721FA02F32B
:1007A000D040C2F120029140084319467047202AE8
:1007B00006DBCB17203A41FA02F043EAE07306E089
:1007C00041FA02F3D040C2F1200291400843194699
:1007D00070470029A8BF7047401C490008BF20F09F
:1007E0000100704710B4B0FA80FC00FA0CF050EA37
:1007F000010404BF10BC704749B1CCF1200421FAB8
:1008000004F411FA0CF118BF012121430843A3EBB2
:100810000C01CB1D4FEA00614FEA102042BF0020BF
:1008200010BC704700EBC35010440029A4BF10BC9B
:100830007047401C490008BF20F0010010BC704701
:1008400010B5141E73F1000408DA401C41F10001D8
:1008500092185B411A4301D120F0010010BD2DE92F
:10086000F04D92469B4611B1B1FA81F202E0B0FA26
:1008700080F220329046FFF77BFF04460F4640EAA5
:100880000A0041EA0B0153465A46084313D0114669
:1008900053EA010019D0C8F140025046FFF777FF34
:1008A00005460E46504659464246FFF761FF08434B
:1008B00005D0012004E020463946BDE8F08D002037
:1008C000054346EAE0762C4337430A986305E40A79
:1008D000A0EB08000022FD0A44EA47540A3002D582
:1008E00000200146E9E7010510196941DDE90845E5
:1008F00000196941BDE8F04DA2E70000064C074D24
:1009000006E0E06840F0010394E8070098471034DF
:10091000AC42F6D3FFF710FC9C620008BC620008F2
:1009200070B58C1810F8015B15F0070301D110F8B1
:10093000013B2A1106D110F8012B03E010F8016BDE
:1009400001F8016B5B1EF9D12B0705D40023521E61
:100950000DD401F8013BFAE710F8013BCB1A921CC9
:1009600003E013F8015B01F8015B521EF9D5A142C7
:10097000D8D3002070BD000030B591B000F062FB0C
:100980000121084601F0B0FB364D284600F0B4FACC
:10099000092003903448009034480190A8150024A1
:1009A00006908000029407900A948020CDE90440CC
:1009B00020200890000209906946284600F00EFBAE
:1009C0000121284600F08CFA0121480201F0A4FB25
:1009D0004FF4004001F07EFB01208DF831008DF8CE
:1009E00030000E944FF460200B940D901E4C0320A9
:1009F0008DF83C004C3C0BA9204600F0BDF80120CE
:100A000000F02CF9072301221946204600F0D8F8FF
:100A1000072302220821204600F0D2F807230322F0
:100A20001021204600F0CCF80121204600F02AF8E1
:100A30000121204600F01CF8204600F0FBF820467B
:100A400000F02AF80028FAD1204600F002F92046EA
:100A500000F029F80028FAD10121204600F0EFF833
:100A600011B030BD080002404C240140F0040020C9
:100A70000029816802D041F0010101E021F001016B
:100A8000816070470029816802D041F4807101E0E3
:100A900021F4807181607047014600208968090750
:100AA00000D501207047014600208968490200D521
:100AB000012070472DE9F041254C2088FFF7C0FD4B
:100AC000244E00223346FFF7CCFC234F00223B4646
:100AD000FFF739FDDFF88480214B4246FFF7C1FC68
:100AE000FFF714FE04F1140528606088FFF7A8FDE5
:100AF00000223346FFF7B5FC00223B46FFF723FDFB
:100B0000FFF704FEA860A088FFF79AFD0022334695
:100B1000FFF7A7FC00223B46FFF715FDFFF7F6FDA8
:100B2000FFF7E1FD42460F4BFFF798FC0E4A0F4BD3
:100B3000FFF709FD00220E4BFFF7ECFBFFF7E6FD88
:100B4000E86000210B4800F07AF8BDE8F081000071
:100B5000F00400200000044000FEAF40E17A14AE33
:100B60004741374047E1F63F22FDF675E09C713F73
:100B7000000039400024014010B542680E4B0C794A
:100B80001A400B6842EA04221343436083680B4A0D
:100B90001340D1E9024222434C7943EA44031A4309
:100BA0008260C26A097C22F47002491EC9B242EA1C
:100BB0000151C16210BD0000FFFEF0FFFDF7F1FF23
:100BC00070B5072409290AD9C568A1F10A0606EB00
:100BD0004606B440A543B3401D43C56007E0056920
:100BE00001EB4106B440A543B3401D4305611F23FB
:100BF000072A09D2446B521E02EB820293409C43A7
:100C000091400C43446370BD0D2A09D2046BD21F7E
:100C100002EB820293409C4391400C43046370BDFD
:100C2000C46A0D3A02EB820293409C4391400C430C
:100C3000C46270BD816841F008018160704700297D
:100C4000816802D041F4A00101E021F4A00181609B
:100C50007047816841F004018160704705490028B0
:100C6000086802D040F4000001E020F400000860B1
:100C7000704700000824014010B500F085FABDE877
:100C800010401821014800F07CBA00000008014023
:100C900010B5FE21012000F027F8012000F006F831
:100CA000FE2801D0002010BD012010BD10B5044663
:100CB00000F0AEFBA02000F02DFB00F0BFFAE0B288
:100CC00000F028FB00F0BAFA00F0A2FBA12000F02F
:100CD00021FB00F0B3FA00F0F7FA044600F0D4FA72
:100CE00000F078FB204610BD70B50D46044600F0BC
:100CF0008FFBA02000F00EFB00F0A0FAE0B200F0A5
:100D000009FB00F09BFA284600F004FB00F096FA7D
:100D100000F060FBBDE87040052002F07FBFFEE7F9
:100D200038B50121082001F0F7F910208DF80300F3
:100D3000E020ADF800000320094C8DF80200694660
:100D4000204600F0A1F98021204600F01AFA402147
:100D5000204600F014FA2021204600F010FA38BD99
:100D6000000C014010B5294C012809D0022815D0EB
:100D7000032821D004282DD0052839D0002010BD0B
:100D80008021204600F0FDF94021204600F0F7F9CF
:100D90002021204600F0F3F9012010BD80212046DB
:100DA00000F0EDF94021204600F0E9F9202120462D
:100DB00000F0E5F9022010BD8021204600F0DFF9A7
:100DC0004021204600F0DBF92021204600F0D9F92F
:100DD000032010BD8021204600F0D1F9402120469B
:100DE00000F0CFF92021204600F0CBF9042010BDFF
:100DF0008021204600F0C3F94021204600F0C1F9CF
:100E00002021204600F0BBF9052010BD000C014058
:100E100038B52B480078092850D100F0C5FC294886
:100E200001244FF018038078009428B34022042155
:100E30001E2000F094FD082323A2194623200094CD
:100E400001F07BF8082323A210212B20009401F04D
:100E500074F800BF00F04CFE204C0A202178FFF708
:100E600043FF2088010A0E20FFF73EFFBDE838400F
:100E70004FF47A7002F0D2BE442204211C2000F00C
:100E80006EFD10231D2208212020009400F0D6FEC4
:100E900010231E2208213020009400F0CFFE1023E2
:100EA0001F2208214020009400F0C8FE10232022B9
:100EB00008215020009400F0C1FECBE738BD0000AF
:100EC000A00000205800002043616C6962726174C8
:100ED0006500000053756363657373007001002043
:100EE0000029016802D041F0010102E04FF6FE72D4
:100EF000114001607047000001684FF6FE7211401A
:100F000001600021016041608160C1603149314A66
:100F10000839904203D1486840F00F0006E02D4A9E
:100F20001432904204D1486840F0F00048607047A5
:100F3000284A2832904203D1486840F47060F5E7AF
:100F4000244A3C32904203D1486840F47040EDE7B7
:100F5000204A5032904203D1486840F47020E5E7BF
:100F60001C4A6432904203D1486840F47000DDE7C7
:100F7000184A7832904203D1486840F07060D5E753
:100F8000154A111F904203D1086840F00F0006E097
:100F9000114A1432904204D1086840F0F000086011
:100FA00070470D4A2832904203D1086840F47060BF
:100FB000F5E7094A3C32904203D1086840F470409A
:100FC000EDE7054A50329042EAD1086840F47020BB
:100FD000E5E70000080002400804024030B503685D
:100FE00047F6F07293430C6A8A682243D1E90445BC
:100FF0002C4322438C692243CC6922434C6A22430E
:101000008C6A22431A430260CA6842600A6882609E
:101010004968C16030BD704708B50121052001F065
:101020007BF818208DF803000420ADF800000320A1
:101030008DF802006946024800F026F808BD00005D
:101040000008014038B501210C2001F065F80024AA
:101050008DF803408220ADF8000003258DF8025082
:101060006946074800F010F88DF803400120ADF8FC
:1010700000008DF802506946024800F005F838BDBE
:1010800000080140000C0140F0B5CA78002502F0CC
:101090000F03D20601D58A7813430A784FF00F0E5A
:1010A00012F0FF0F4FF001021CD004680F8802FA03
:1010B00005F63740B74211D14FEA850C0EFA0CF70E
:1010C00024EA070703FA0CF43C43CF78282F02D018
:1010D000482F02D002E0466100E006616D1C082D39
:1010E000E4D304600C88FF2C1ED944685FF000062E
:1010F00006F1080702FA07F50F882F40AF420FD11B
:101100004FEA860C0EFA0CF7BC4303FA0CF73C438B
:10111000CF78282F00D14561CF78482F00D10561C5
:10112000761C082EE4D34460F0BD0000F8B510240E
:1011300003250E4E012812D000280FD101210420D2
:1011400000F0EAFF04208DF8030000BFADF8004076
:101150008DF8025069463046FFF796FFF8BD012131
:10116000042000F0D9FF8DF80340EFE700080140AC
:101170000246002092680A4200D001207047416177
:101180007047016170470000F8B50121042000F0AC
:10119000C3FF10248DF803400C4EADF8004003252A
:1011A0008DF8025069463046FFF76EFF8DF8034018
:1011B0000820ADF800008DF8025069463046FFF770
:1011C00063FF18213046FFF7DCFFF8BD000801403F
:1011D0002DE9F04106464FF080450021284601F0F8
:1011E00033FBDC2002F01AFDFFF764FC0F48008897
:1011F000FFF721FA0E498968FFF75AF8044630468E
:10120000FFF719FA2146FFF74DF80A4F38612046DB
:10121000FFF723FA0146304600F022FF38800146EE
:101220002846BDE8F04101F00FBB0000700100202E
:101230000405002034000020FEE7000070B5002007
:10124000FFF774FF0F4D08212846FFF79AFF022091
:1012500002F0FEFC07E0641CE4B2FA2C03D900F0B3
:10126000B9F8012070BD10212846FFF781FF002842
:10127000F1D108212846FFF782FF022002F0E8FCA6
:10128000002070BD0008014010B50E4C082120461A
:10129000FFF775FF0120FFF749FF10212046FFF7F8
:1012A00070FF022002F0D4FC08212046FFF769FFFE
:1012B000022002F0CDFC2046BDE810400821FFF7D7
:1012C0005EBF00000008014070B50020FFF72EFF50
:1012D0000F4E002508213046FFF751FF022002F093
:1012E000B7FC08213046FFF74CFF6006040E1021C2
:1012F0003046FFF73DFF08B1641CE4B2012002F064
:10130000A7FC6D1CEDB2082DE4D3204670BD000093
:101310000008014070B5054600240120FFF706FFD4
:10132000134E08213046FFF72AFF28064FF0100120
:10133000304602D5FFF725FF01E0FFF720FF6806E2
:10134000050E022002F084FC08213046FFF719FF49
:10135000022002F07DFC08213046FFF710FF02203A
:1013600002F076FC641CE4B2082CDED370BD0000F1
:101370000008014010B50C4C40212046FFF701FF4A
:1013800020212046FFF7FDFE00F07AF8402120469C
:10139000FFF7F5FE00F074F820212046FFF7EFFE7E
:1013A000BDE8104000F06CB80008014010B5084CD2
:1013B00040212046FFF7E3FE20212046FFF7E1FE13
:1013C00000F05EF82046BDE810404021FFF7D9BE8E
:1013D0000008014010B50120FFF7A8FE0B4C1021BA
:1013E0002046FFF7CCFE042002F032FC0821204604
:1013F000FFF7C7FE042002F02BFC10212046FFF768
:10140000C0FEBDE81040042002F022BC00080140EC
:1014100010B50120FFF78AFE0C4C08212046FFF78B
:10142000B0FE10212046FFF7ACFE042002F010FCB5
:1014300010212046FFF7A3FE042002F009FC2046FD
:10144000BDE810400821FFF79ABE000000080140E7
:1014500010B50A4C40212046FFF793FE00F010F82B
:1014600020212046FFF78DFE00F00AF820212046BB
:10147000FFF785FEBDE8104000F002B8000801400B
:101480000320401EC0B2FCD27047000008B5012105
:10149000092000F041FE48208DF803004FF4604021
:1014A000ADF8000003208DF8020069460148FFF7FF
:1014B000EBFD08BD000C01402DE9F05FDFF8B0A1A5
:1014C0004FF4004B59465046FFF752FE694FDFF884
:1014D000A8916A4E6A4D6B4C4FF0010880B14FF4F1
:1014E000804B59465046FFF743FEE0B34FF4005897
:1014F000414657465046FFF73BFE002873D0B1E007
:10150000642002F08BFB59465046FFF731FE00285D
:10151000F5D12878C0B9A0884FF4D271884201D3A0
:10152000A18002E039880844A08089F800802179F0
:101530000F20FFF7D9FBA088010A1020FFF7D4FB8A
:101540000321402000F04CF9002002F00DFB0020A8
:1015500002F028FB002000F0B9F8002000F094F819
:10156000287818B100E006E000F01EF9287806EBB4
:10157000C000407875E0642002F050FB59465046A8
:10158000FFF7F6FD00286DD12878B0B9A088322881
:1015900001D8322001E03988401AA08089F8008003
:1015A00021790F20FFF7A0FBA088010A1020FFF788
:1015B0009BFB0321402000F013F9012002F0D4FA34
:1015C000012002F0EFFA012000F080F8012000F085
:1015D0005BF8287808B100F0E7F8287806EBC0003F
:1015E000C0783EE0FFE7C82002F018FB41463846CD
:1015F000FFF7BEFDB0BBFFF70BFC28780D2809D123
:10160000607858B10020607000F008F96178062019
:10161000FFF76AFB28780E2802D008E00120F2E7E5
:10162000A07850B10021A1700720FFF75DFB00F00A
:10163000BDFC28780A2802D00BE00121F3E7E0780E
:10164000A0B10020E07000F0DDF8E1780520FFF7A0
:101650004BFB00F0B5FD00F0A7F8287806EBC000C2
:1016600080782870BDE8F05F00F054B80120E9E709
:10167000000C014078010020C4010020A8000020D7
:10168000A0000020580000200E4930B40E4A0B780C
:101690000024118820B1012812D1152B08D00AE0AE
:1016A000152B0DD1C82901D3148004E0491C01E099
:1016B00009B1491E1180117830BC0B20FFF714BB13
:1016C00030BC7047A0000020740100200E4930B4E7
:1016D0000E4A0B780024118820B1012812D1132B57
:1016E00008D00AE0132B0DD1FF2901D3148004E0A8
:1016F000491C01E009B1491E1180117830BC092054
:10170000FFF7F2BA30BC7047A00000207201002041
:10171000FEE700000448A0F108010A7800EBC200CF
:101720004068486000470000A800002070470000A3
:1017300070B50F23C47801780122F4B1144C2468E9
:10174000457804F4E064C4F5E064240AC4F10406B6
:10175000E3408478B5401C402C4301F1E021230193
:1017600081F80034007800F01F018A4040098000B1
:1017700000F1E020C0F8002170BD01F01F008240A0
:101780004809800000F1E020C0F8802170BD000011
:101790000CED00E002490843024908607047000070
:1017A0000000FA050CED00E010B500210B4B0A46D5
:1017B0005FF0000003EB8004401CC0B2625480283C
:1017C000F8D3491CC9B20429F2D34FF47A7002F05D
:1017D0003FFABDE8104000F08BB90000CC010020BA
:1017E00030B400221346064C05E000BF04EB82052E
:1017F000521C6B54D2B28242F8D330BC00F078B99C
:10180000CC01002030B1012807D100215FF0A700F2
:1018100000F0B1BB0021A620FAE7704710B558B11F
:10182000012810D10021C02000F0A5FB0021A0203C
:10183000BDE8104000F09FBB0021C82000F09BFBDA
:101840000021A120F4E710BD2DE9FE4F151ACDE9C6
:1018500000104FF000085E1A47464FF0FF30002D91
:1018600002DD4FF0010102E003D14FF000018B4691
:1018700002E08346C5F10005002E02DD4FF00100B5
:1018800002E003D14FF00000824602E08246C5F13B
:101890000006B54201DD2C4600E03446601C4FF0E6
:1018A0000009029019E000980C9AC1B20198C0B2E8
:1018B00000F018F8A8443744A04504DD0198A8EBCF
:1018C000040858440190A74203DD00983F1B504490
:1018D000009009F101001FFA80F902998945E2DBC5
:1018E000BDE8FE8F30B5CC0801F0070301259D400F
:1018F000EBB2064D05EB8005C808285C0AB1184319
:1019000002E063EA0000C043285530BDCC0100204E
:10191000F8B50546DDE9060600900C46284600F0BD
:101920001EF80720B6FBF0F6601C0127C3B2C1B257
:101930006D1CF2B2E8B20097FFF786FFA01CC3B29D
:10194000C1B2F2B2E8B20097FFF77EFFE41CE3B247
:10195000F2B2E1B2E8B20097FFF776FFF8BD2DE9E9
:10196000F8411C46079E85180F468046EAB20B4692
:101970000096FFF769FF3C444246E3B23946104601
:101980000096FFF761FFE3B2EAB2E1B2404600968B
:10199000FFF75AFF641CE3B2EAB2E8B23946009698
:1019A000FFF752FFBDE8F88138B50121042000F0AF
:1019B000B3FB6020ADF8000014208DF80300474D04
:1019C00003248DF8024069462846FFF75DFB60213D
:1019D0002846FFF7D6FB0420ADF8000010208DF854
:1019E00003008DF8024069462846FFF74DFB0421AD
:1019F0002846FFF7C6FB04212846FFF7C0FBC82096
:101A000002F00CF904212846FFF7BBFB0021AE20B1
:101A100000F0B1FA0021084600F0ADFA00211020D4
:101A200000F0A9FA0021084600F0A5FA0021B02034
:101A300000F0A1FA0021812000F09DFA0021FF2092
:101A400000F099FA0021A12000F095FA0021A620CB
:101A500000F091FA0021A82000F08DFA00211F204B
:101A600000F089FA0021C82000F085FA0021D32077
:101A700000F081FA0021084600F07DFA0021D5200F
:101A800000F079FA0021802000F075FA0021D920B9
:101A900000F071FA00211F2000F06DFA0021DA2019
:101AA00000F069FA0021084600F065FA0021DB2009
:101AB00000F061FA0021402000F05DFA00218D2045
:101AC00000F059FA0021142000F055FAFFF76CFEDF
:101AD0000021AF2000F04FFA38BD0000000801409F
:101AE0000246012000E05043491EC9B2FBD27047B4
:101AF00070B5184E002400BF04F1B000C0B2002140
:101B000000F039FA0021084600F035FA00211020D3
:101B100000F031FAFFF72EFC782000F011FCFFF7FF
:101B200097FC402000F00CFCFFF792FC5FF00005F2
:101B300006EB8500005D00F003FCFFF789FC6D1CDF
:101B4000EDB2802DF4D3FFF731FC641CE4B2042C19
:101B5000D2D370BDCC0100202DE9FC4F1C460E46AF
:101B600082468B460190082B0DD0600700D00120E3
:101B700000EBD40061084843C0B28146203AD0B29D
:101B8000009000204BE00620F7E7082C13D00C2C27
:101B900018D0102C1BD0182C44D10098234900EBEE
:101BA000C00000BF01EB8001002711F80850E807D2
:101BB00012D00B9A13E000981D4900EB400001EB96
:101BC0004001F1E700981B4900EB4000EAE71A49A1
:101BD000009801EB0011E7E70B9828B3002231468B
:101BE0005046FFF77FFE761C7F1C6D08FFB2F6B2F1
:101BF000082FDCD30AF1010000F0FF0A082C0AD0FC
:101C00000199AAEB0100B0EB540F04D10BF10800CD
:101C10008A4600F0FF0B08F101005E46C0B2804624
:101C20004845B2D3BDE8FC8F0122D8E7304C00080C
:101C3000A43F0008CC410008404600082DE9FF4FB2
:101C400081B08146009098460E468B46580701D0D9
:101C5000012100E0002101EBD80000FB08FA00247C
:101C600048E000BFB8F1100F12D0B8F1180F14D02F
:101C7000B8F1200F18D0B8F1400F3DD12149039899
:101C800001EB40200027055DE80713D00E9A14E011
:101C90001D49039801EB4010F4E703981B4900EB42
:101CA000C00001EBC000EDE716490398803901EB55
:101CB000C010E7E70E9810B3002231464846FFF700
:101CC00011FE761C7F1C6D08FFB2F6B2082FDBD325
:101CD00009F10100009900F0FF09A9EB010141455C
:101CE00005D10BF10800DDF8009000F0FF0B641C3B
:101CF0005E46A4B25445B5D305B0BDE8F08F0122CD
:101D0000DBE700009C6000088C5900086C5E00084E
:101D10002DE9F84F8A46DDE90A1B81464E081D462B
:101D20001D491046FEF7C4FAFEF7B0FC1FFA80F812
:101D300000242CE0281B401EC1B20A20FFF7D0FE71
:101D4000B8FBF0F00A21B0FBF1F201FB1207E81E2C
:101D500084420ED100FB0690CDF800B00AF0FF01DE
:101D6000C0B22E220A9BFFF7F7FE641C6D1CE4B282
:101D7000EDB204FB06903037CDF800B0FAB20AF0AD
:101D8000FF01C0B20A9BFFF7E7FE641CE4B2AC425D
:101D9000D0D3BDE8F88F000000007A442DE9F84F59
:101DA0008246DDE90A5014461F468946460800224D
:101DB0001E4B20463946DDF830B0FEF752FBFEF7E9
:101DC00079FC1FFA80F800242CE0281B401EC1B2C9
:101DD0000A20FFF785FEB8FBF0F00A21B0FBF1F214
:101DE00001FB1207281F84420ED100FB06A009F058
:101DF000FF01C0B2CDF800B02E220B9BFFF7ACFE66
:101E0000641C6D1CE4B2EDB204FB06A03037FAB2DC
:101E100009F0FF01C0B2CDF800B00B9BFFF79CFEAC
:101E2000641CE4B2AC42D0D3BDE8F88F0088C34054
:101E30002DE9F84F0025DDE90A691F4692468B46D9
:101E40008046082E00D1022500241CE0381B401ECD
:101E5000C1B20A20FFF744FEBAFBF0F00A21B0FB42
:101E6000F1F201FB1200CDF8009080B13030C2B227
:101E700005EB560101FB0480C0B233465946FFF71B
:101E80006BFE641CE4B2BC42E0D3BDE8F88F05EB06
:101E9000560101FB0480C0B233463022EEE72DE943
:101EA000FF4F82B08046019092460C464FF00009E9
:101EB0008B46580700D0012000EBD300059000208E
:101EC00032E000262BE00F98002510F8097009F188
:101ED00001001FFA80F9F80701D0109A02E010986B
:101EE00048B3002221464046FFF7FCFC641C6D1CF1
:101EF0007F08EDB2E4B2082DEDD308F1010001999D
:101F000000F0FF08A8EB0101514505D10BF10800D5
:101F1000DDF8048000F0FF0B761C5C46F6B25645F7
:101F2000D1D30098401CC0B2009005998842C8D314
:101F300006B0BDE8F08F0122D4E72DE9F8411E4636
:101F4000154688460446079F0BE033464146204627
:101F50000097FFF701FE082E0AD004EB5600C4B22A
:101F60006D1C2A78A2F120005E28EED9BDE8F88128
:101F7000A41DE4B2F4E770B50C460546FFF7FAF984
:101F8000782000F0DDF9FFF763FA0CB1402000E0A3
:101F9000002000F0D5F9FFF75BFA284600F0D0F9F1
:101FA000FFF756FABDE87040FFF700BA70B5134D61
:101FB000134C2878042803D10120FEF7D3FE2070AB
:101FC0002878052803D10220FEF7CCFE207028785F
:101FD000062803D10320FEF7C5FE207028780728C5
:101FE00003D10420FEF7BEFE20702878082803D114
:101FF0000520FEF7B7FE207070BD0000A000002095
:102000005800002070B50C460546FFF705F8012181
:10201000084600F075F8114A6D1E641E9580148004
:1020200000245480D4804FF0804514721146284615
:1020300000F00CFC094960200A310880012048802A
:102040000C81284600F0BCFB0821284600F0F6FB76
:102050002846BDE87040012100F094BBD404002064
:102060002DE9F041401AFEF7DDFA184C054601460D
:10207000E069FEF7C5F8E06107462846216AFEF7E9
:1020800011F9E168FEF714F906463946A068FEF733
:102090000FF9074629466068FEF70AF93946FEF748
:1020A000AFF83146FEF7ACF8002209492562B0F5D9
:1020B000000F01DA002002E0884201DB0846E261FD
:1020C000FEF7E4FA80B2BDE8F081000034000020A1
:1020D00000007A44034A516821F4404101435160B1
:1020E0007047000000100240044A0029516901D0E5
:1020F000014300E08143516170470000001002403D
:10210000044A0029D16901D0014300E08143D16133
:102110007047000000100240044A0029916901D074
:10212000014300E0814391617047000000100240CC
:1021300030B51F494A6812F00C031E4A03D0042B25
:1021400001D0082B21D002604A680F231A4C03EA01
:102150001212A35C0268DA4042604B68072505EA68
:102160001323E35C22FA03F383604B6805EAD3236D
:10217000E35CDA40C2604968032303EA9131231F1C
:10218000595CB2FBF1F1016130BD4A684B6802F461
:1021900070124FF0020413F4803F04EB924202D01D
:1021A0004B689B0301D5054B00E0024B5A43CAE73D
:1021B0000010024000127A000400002000093D00D7
:1021C0002DE9F8435448007817287DD1FFF7ECFA41
:1021D000524C0021DFF84891A378524E524F3220E2
:1021E000DFF848810125E17040F28312002B617015
:1021F00044D0A1700523C9F8005033803A80A8F874
:1022000000004FF49670A0801846FEF76DFD6178CF
:102210000620FEF769FDA1780720FEF765FD99F815
:1022200000100820FEF760FD31780920FEF75CFD04
:1022300039780A20FEF758FD98F800100B20FEF7B9
:1022400053FD1823402204211E200095FFF787FB31
:10225000082337A2194632200095FFF76EFE0823A7
:1022600035A210212B200095FFF767FEFFF740FCF9
:10227000BDE8F8434FF47A7001F0D0BC0A23C9F8E6
:1022800000300F2333803A80A8F800000520FEF7C5
:102290002BFD61780620FEF727FDA1780720FEF7C9
:1022A00023FD99F800100820FEF71EFD3178092063
:1022B000FEF71AFD39780A20FEF716FD98F800108F
:1022C0000B20FEF711FD00E024E02C4618234422E9
:1022D00004211C200095FFF742FB10232122082136
:1022E00020200094FFF7AAFC10232222082130208E
:1022F0000094FFF7A3FC10231F2208214020009424
:10230000FFF79CFC10232022082150200094FFF7A7
:1023100095FCABE7BDE8F883A00000205800002042
:10232000780100207201002070010020740100205B
:1023300052657365740000005375636365737300C1
:1023400070B5104E0546002428064FF04001304677
:1023500002D5FEF716FF01E0FEF711FFFFF790F838
:1023600020213046FEF70DFFFFF78AF82021304686
:10237000FEF705FF6806641C050EE4B2082CE3D3E3
:1023800070BD0000000801400CB5002126480191F5
:102390000091026842F4803202604FF4A063026848
:1023A00002F400320092019A521C0192009A12B972
:1023B000019A9A42F3D10268920333D50121009128
:1023C0001A490A6842F010020A600A6822F0030201
:1023D0000A600A6842F002020A604168416041688E
:1023E0004160416841F480614160416821F47C11A1
:1023F0004160416841F4E8114160016841F0807139
:10240000016001688901FCD5416821F00301416048
:10241000416841F0020141604168C1F38101022934
:10242000FAD10CBD00910CBD00100240002002400A
:102430004FF0E0210428086903D020F0040008616F
:10244000704740F00400FAE710B5BF2080F3118810
:10245000BFF34F8FBFF36F8F01F01AFD18B104491E
:102460004FF080500860002080F3118810BD0000FC
:1024700004ED00E00F4810B5016841F00101016072
:1024800041680D4A1140416001680C4A11400160E9
:10249000016821F480210160416821F4FE0141605E
:1024A0004FF41F018160FFF76FFF05494FF0006097
:1024B000086010BD001002400000FFF8FFFFF6FEAC
:1024C00008ED00E070B50520FEF7F0FB174CE0705A
:1024D0000620FEF7EBFB60700720FEF7E7FBA0701D
:1024E0000820FEF7E3FB124908600920FEF7DEFB37
:1024F000104908800A20FEF7D9FB05460E20FEF79A
:10250000D5FB0D4945EA002008800B20FEF7CEFBE5
:102510000A4908800F20FEF7C9FB05461020FEF788
:10252000C5FB45EA0020A08070BD000058000020D7
:102530007801002072010020700100207401002049
:102540007FB50C46054601210220FFF7D9FD00208A
:10255000ADF80200641EADF80040ADF80600124C64
:102560006D1EADF804506946204600F06FF9012158
:10257000204600F001F901221146204600F018F92A
:102580000121204600F0FEF81D208DF80C000120EE
:102590008DF80F008DF80D0002208DF80E0003A8B5
:1025A000FFF7C6F87FBD0000000400402DE9F843A6
:1025B000DFF8E0900121484600F0EEF8002867D0EF
:1025C000354C364E6088401C80B260803188C1EB4B
:1025D0000111B0EB810F55D301252570DFF8C080C4
:1025E000002748E02F480088FEF7F2FDFFF7DCF8EF
:1025F0001823442204211C200095FFF7B0F9102372
:102600002322082120200095FFF718FB1023242205
:10261000082130200095FFF711FB10232522082107
:1026200040200095FFF70AFB1023262208215020A6
:102630000095FFF703FBFFF75BFA4FF400414046BC
:10264000FEF796FD18B967802770FFF7ADF84FF4D5
:1026500080414046FEF78CFD18B967802770FFF770
:10266000A3F84FF400514046FEF782FD18B9678089
:102670002770FFF799F830886188C0EB0010B1EB44
:10268000800FAFD24846BDE8F843012100F077B88B
:10269000BDE8F88300040040C6010020720100205C
:1026A000000C0140740100207FB50C460546012155
:1026B0000420FFF725FD0021ADF80210641EADF8DF
:1026C0000040ADF80610124C6D1E8DF80810ADF8E4
:1026D00004506946204600F0B9F80121204600F078
:1026E0004BF801221146204600F062F801212046F5
:1026F00000F048F81E208DF80C0001208DF80F0026
:102700008DF80D008DF80E0003A8FFF711F87FBDBE
:102710000008004010B5144C0121204600F03CF8A0
:1027200000281FD011480078B0B91148017819B1BC
:102730000020092909D000E001200021084306D02B
:102740000C480088FEF744FD06E00121F6E7002171
:102750004FF0804000F078F82046BDE8104001219D
:1027600000F00DB810BD000000080040C6010020B8
:10277000A00000205C000020C94301827047C943CB
:10278000018270470029018802D041F0010101E077
:1027900021F001010180704702460020138A9289CE
:1027A0000B4202EA010202D0002A00D00120704749
:1027B000002A828901D00A4300E08A43828170475F
:1027C00070B5028C22F480720284028C8488838B20
:1027D0000D8823F073031D4322F400730E894FF616
:1027E000FF7202EA06261E434B8802EA03233343A4
:1027F000104EB04202D0104EB04215D123F4006604
:102800004B8924F4405402EA0323334323F48066C3
:102810008B8802EA032333438E8902EA0616264395
:10282000CC8902EA0414344384808583C988818773
:10283000038470BD002C014000340140828B22F0E3
:1028400008020A43828370478187704730B5028847
:102850001B4B1C4C98420DD0A0420BD0B0F1804FC6
:1028600008D0194DA84205D0184DA84202D0184DE5
:10287000A84203D122F070054A882A43154DA84288
:1028800006D0154DA84203D022F44075CA882A43C9
:1028900002808A8882850A88028598420AD0A042EE
:1028A00008D00E4A904205D00D4A904202D00D4AFF
:1028B000904201D1097A01860121818230BD000058
:1028C000002C01400034014000040040000800409A
:1028D000000C004000100040001400400040014087
:1028E000004401400048014070B5154C40F22551AC
:1028F000204600F035F800280ED0204600F0BEF843
:10290000C2B2104801880B0406D44C044FF00003F7
:1029100006D50A2A01D0038070BD41F400410DE0C4
:102920000D2A09D0C1F30D04074D491C89B22A555F
:102930000180C729EFD870BD41F48041018070BD8E
:1029400000380140180000200C0400200029818973
:1029500002D041F4005101E021F40051818170471F
:1029600030B501F01F0201240025C1F3421304FA1F
:1029700002F2012B0FD0022B0FD0838A4FEA1121D4
:102980000088134204FA01F400EA040001D000B107
:102990000125284630BD8389F0E7038AEEE710B5AC
:1029A000C1F3421301F01F040121A140012B07D004
:1029B000022B07D01430002A026805D00A4304E035
:1029C0000C30F8E71030F6E78A43026010BD0000D3
:1029D00030B50446008A85B00D464CF6FF710840BC
:1029E000E98801432182A1894EF6F3100140A888AD
:1029F0002A8910436A890A431043A081A08A4FF6AE
:102A0000FF410840A9890143A1826846FFF790FB76
:102A10001948844201D1039800E00298A189090471
:102A200000EBC00101EB0010296801D5490000E06E
:102A30008900B0FBF1F06422B0FBF2F109010B094F
:102A40006FF018056B4300EB8300A3891D044FF062
:102A5000320306D503EBC000B0FBF2F000F0070034
:102A600005E003EB0010B0FBF2F000F00F000843AC
:102A7000208105B030BD0000003801408088C0F3DF
:102A8000080070472DE9FC413D480088FDF7D3FD63
:102A90003C4DA968FDF70CFCFDF7F8FD0246002649
:102AA0001820CDE90006012103230846FFF7C0F9ED
:102AB000012410230022214625200094FFF7BEF8B0
:102AC000102331A205212A200094FFF736FA4FF097
:102AD00008082E4FCDE9008403233A8813213020C3
:102AE000FFF7A6F938880423CDE900403B221A21DC
:102AF0000120FEF70DFF26484FF0100300780096E6
:102B0000B8B324A201213A20FFF717FA0C2322A21E
:102B100000214A200094FFF710FA0C26CDE900644A
:102B20000623002156202A68FFF7F2F80C231BA287
:102B300019464A200094FFF700FACDE90064062305
:102B40000C215620EA68FFF7E3F8082314A21821A5
:102B50004A200094FFF7F1F91248CDE90084028879
:102B6000052318215620FFF763F9BDE8FC41FEF765
:102B7000BFBF012211463820FFF760F8C6E700000A
:102B80007001002004050020430000005C000020CC
:102B90005A00002048000000563A0000543A000055
:102BA000503A00003400002038B501240C230CA258
:102BB000082126200094FFF7C0F90C2309A2082160
:102BC00054200094FFF7B9F91023142206211E2087
:102BD0000094FEF7C4FEBDE83840FEF789BF000050
:102BE000580000004F4B000038B501240021082395
:102BF0000EA208460094FFF7A0F908230FA2194679
:102C000000200094FFF799F9082311A21021002059
:102C10000094FFF792F9082313A2182100200094D2
:102C2000FFF78BF9BDE83840FEF762BF5665727357
:102C3000696F6E7320312E310000000055706461A1
:102C400074656420323032332F312F32000000009F
:102C50004E616D652054313220476F6C64656E2083
:102C600043726F7700000000417574686F722058DE
:102C700069616F20586961200000000038B51F4865
:102C800000244FF0180300781DA24FF004010094B7
:102C9000A0B10520FFF751F918231AA204211C2026
:102CA0000094FFF74AF9182318A204216D2000941C
:102CB000FFF743F9BDE83840FEF71ABF1720FFF7CA
:102CC0003CF918230222042128200094FEF7B6FFC5
:102CD00018230322042140200094FEF7AFFF0120B7
:102CE00002460090172304215820FEF738FE1823CF
:102CF000042106A25F200094DAE700005A000020B9
:102D00003C00000041444A55535400003E0000007E
:102D1000FEB50124082320A2002137200094FFF7EC
:102D20000CF91820CDE900041E4D042308212A883F
:102D30003720FFF77DF81C4EB068FDF7D4FC0C2758
:102D40000622CDE9002702460B4602940921002005
:102D5000FFF724F80C2315A209212A200094FFF77D
:102D6000ECF82888FDF767FCB168FDF7A1FAFDF7DC
:102D70008DFCCDE900740246032314210020FFF7E7
:102D800057F80C230AA2142112200094FFF7D5F85B
:102D9000BDE8FE40FEF7ACBE43616C6962726174CF
:102DA00065000000700100200405002056000000AE
:102DB0004300000038B501240C230CA20821262072
:102DC0000094FFF7BAF80C2309A2082154200094BC
:102DD000FFF7B3F810231422062150200094FEF7C9
:102DE000BEFDBDE83840FEF783BE0000580000007D
:102DF0004F4B000038B51F4800244FF018030078EF
:102E00001DA24FF004010094A0B10520FFF795F832
:102E100018231AA204212E200094FFF78EF81823FD
:102E200017A204216D200094FFF787F8BDE8384011
:102E3000FEF75EBE1720FFF780F804221823114624
:102E400028200094FEF7FAFE1823052204214020D2
:102E50000094FEF7F3FE01200246009017230421A0
:102E60005820FEF77CFD1823042105A25F20009462
:102E7000DAE700005A0000203C00000053455400EF
:102E80003E00000038B5FE490124097881B10028D0
:102E90007DD001287CD002287BD003287AD004285A
:102EA00079D0052878D0062877D0072876D056E242
:102EB00070B1012820D002284ED003286FD00428FA
:102EC0006ED005286DD006286CD007286BD046E25E
:102ED00000211023EBA208460094FFF72EF81023E0
:102EE0000222002114200094FEF7A8FE10230322E2
:102EF0000021242000940BE01023E2A219460020B8
:102F00000094FFF71AF810230222002114200094E5
:102F1000FEF794FE10230322002124200094FEF7E4
:102F20008DFE10230422194614200094FEF786FE1D
:102F300010230522194624200094FEF77FFE10235B
:102F40000622194634200094FEF778FE102307224B
:102F5000009410214420CFE01023CAA2194600207B
:102F60000094FEF7EAFF10230422002114200094AD
:102F7000FEF764FE10230522002124200094FEF7B2
:102F80005DFE102306220021342000940CE091E124
:102F900096E1A8E1BAE1CCE1E5E1F7E109E22CE054
:102FA0006EE0ACE0F7E049E1FEF748FE10230722AF
:102FB000002144200094FEF741FE10230822194608
:102FC00014200094FEF73AFE10230922194624200B
:102FD0000094FEF733FE10230A2219463420009491
:102FE000FEF72CFE10230B22194644200094FEF716
:102FF00025FE10230C2200941DE11023A1A21946E6
:1030000000200094FEF799FF1023082200211420CD
:103010000094FEF713FE10230922002124200094BF
:10302000FEF70CFE10230A22002134200094FEF744
:1030300005FE10230B22002144200094FEF7FEFD24
:1030400010230C22002154200094FEF7F7FD1023DA
:103050000D22194614200094FEF7F0FD10230E22D5
:10306000194624200094FEF7E9FD10230F2219468B
:1030700034200094FEF7E2FD10231A46009468E71E
:10308000102380A2194600200094FEF756FF10235B
:103090000D22002114200094FEF7D0FD10230E22F3
:1030A000002124200094FEF7C9FD10230F220021E7
:1030B00034200094FEF7C2FD10231A46002144205C
:1030C0000094FEF7BBFD1023112219461420009432
:1030D000FEF7B4FD10231222194624200094FEF7B7
:1030E000ADFD10231322194634200094FEF7A6FDEF
:1030F0001023142200942CE7FEF7A0FD2FE11023EB
:1031000060A2194600200094FEF717FF1023112239
:10311000002114200094FEF791FD102312220021BB
:1031200024200094FEF78AFD10231322002134206E
:103130000094FEF783FD1023142200214420009404
:10314000FEF77CFD10231522194614200094FEF78B
:1031500075FD10231622194624200094FEF76EFDFB
:1031600010231722194634200094FEF767FD102320
:103170001822194644200094FEF760FD10231922FE
:10318000194654200094FEF759FD10231A221946BF
:1031900064200094B0E710233AA21946002000945E
:1031A000FEF7CBFE10231522002114200094FEF719
:1031B00045FD10231622002124200094FEF73EFD39
:1031C00010231722002134200094FEF737FD10232E
:1031D0001822002144200094FEF730FD102319220C
:1031E000002154200094FEF729FD10231A2200210B
:1031F00064200094FEF722FD1023082219461420B3
:103200000094FEF71BFD1023092219462420009488
:10321000FEF714FD10230A22194634200094FEF70D
:103220000DFD10230422194644200094FEF706FDEC
:10323000102305220094102154205DE7102311A2D1
:10324000194600200094FEF778FE10230822002182
:1032500014200094FEF7F2FC102309220021242000
:103260000094FEF7EBFC10230A2200213420009486
:10327000FEF7E4FC1023042200214420009403E024
:103280005A0000203E000000FEF7D8FC1023052263
:10329000002154200094FEF7D1FC10231B22194674
:1032A00014200094FEF7CAFC10231C221946242087
:1032B000009421E71023AFF234020021009404E0CF
:1032C0001023AFF24002194600940020FEF735FEAD
:1032D000102341A2002114200094FEF72EFE10239B
:1032E0003FA2009437E01023AFF268021946002095
:1032F0000094FEF722FE102339A20021142000942E
:10330000FEF71BFE102339A2009424E01023AFF235
:103310008C02194600200094FEF70FFE102333A202
:10332000002114200094FEF708FE102333A200941D
:1033300011E01023AFF2B402194600200094FEF70A
:10334000FCFD10232DA2002114200094FEF7F5FDB2
:1033500010232DA2009410211420FEF7EEFDBDE8ED
:103360003840FEF7C5BB1023AFF2E8021946002033
:103370000094FEF7E2FD102323A200211420009404
:10338000FEF7DBFD102324A20094E4E71023AFF244
:103390000C12194600200094FEF7CFFD10231EA248
:1033A000002114200094FEF7C8FD10231DA20094F4
:1033B000D1E71023AFF23412194600200094FEF733
:1033C000BCFD102317A2002114200094FEF7B5FDC8
:1033D000102318A20094BEE7536B696E0000000032
:1033E00054656D7020537465707300004C6F7720C6
:1033F000506F77657220546900000000526F74614D
:1034000074696F6E000000004C616E6775616765DE
:103410002043757400000000526573657420446198
:10342000746100004C6F7720506F7765722054658F
:1034300000000000496E2052656761726420546F7D
:10344000000000001CB5012408230AA20021162058
:103450000094FEF772FD1820CDE90004094803230B
:10346000082182882C20FEF7E3FCBDE81C40FEF713
:103470003FBB00004C6F7720706F776F72205465F0
:103480006D700000700100201CB5012408230AA201
:1034900000210C200094FEF750FD1820CDE9000417
:1034A0000A480323082182682C20FEF7C1FCBDE8EE
:1034B0001C40FEF71DBB000054656D7065726174A1
:1034C00075726520737465707300000070010020D0
:1034D0001CB5012408230AA2002116200094FEF73F
:1034E0002CFD1820CDE90004094803230821428857
:1034F0002C20FEF79DFCBDE81C40FEF7F9BA000049
:103500004C6F7720706F776F722054696D65000083
:103510007001002038B51F4800244FF018030078D0
:103520001DA24FF004010094A0B10520FEF705FD97
:1035300018231AA2042116200094FEF7FEFC18237B
:1035400018A204216D200094FEF7F7FCBDE8384076
:10355000FEF7CEBA1720FEF7F0FC18230022042154
:1035600028200094FEF76AFB182301220421402042
:103570000094FEF763FB012002460090172304210C
:103580005820FEF7ECF91823042106A25F200094CE
:10359000DAE700005A0000203C000000564F4C546F
:1035A000414745003E0000007CB5012408231EA2CF
:1035B000002105200094FEF7C0FC08231DA2194637
:1035C00005200094FEF7B9FC002508231DA2102158
:1035D00005200095FEF7B1FC08231DA21821052047
:1035E0000094FEF7AAFC1D48CDE9000518231A46F1
:1035F00000215020FEF753FCFDF75CFA18481949EA
:103600004FF008030068009408441749884201D22B
:1036100016A200E017A218215020FEF78EFCBDE88C
:103620007C40FEF765BA00005044203556203341F7
:1036300020000000504420514320395620334120BF
:103640000000000051432031325620334120000059
:103650005044203135562033412000007C010020A9
:1036600004050020CCCCCCBE999919007375636316
:10367000657373006673696C757265007CB50124AF
:1036800008231EA2002105200094FEF756FC082303
:103690001DA2194605200094FEF74FFC08231EA228
:1036A000102105200094FEF748FC002508231DA2E8
:1036B000182105200095FEF740FC1D48CDE90005C6
:1036C00018231A4600215820FEF7E9FBFDF7F2F90E
:1036D000184819494FF00803006800940844174936
:1036E000884201D216A200E017A218215020FEF74E
:1036F00024FCBDE87C40FEF7FBB9000050442035B7
:1037000056203341200000005044205143203956B8
:103710002033412000000000514320313256203335
:103720004120000050442031355620334120000014
:103730007C010020040500200000A0BECDCC1C00B0
:1037400073756363657373006673696C7572650086
:103750007CB5012408231EA2002105200094FEF759
:10376000ECFB08231EA2194605200094FEF7E5FB9A
:1037700008231EA2102105200094FEF7DEFB002581
:1037800008231DA2182105200095FEF7D6FB1E4830
:10379000CDE9000518231A4600215820FEF77FFBCB
:1037A000FDF788F919481A494FF00803006800949A
:1037B00008441849884201D817A200E018A218212D
:1037C0005020FEF7BAFBBDE87C40FEF791B900003F
:1037D000504420514320395620334120000000003E
:1037E00051432031325620334120000050442031D3
:1037F00035562033412000005044203230562033CB
:103800002E323541200000007C01002004050020FC
:1038100066666EBECCCC140073756363657373000B
:103820006673696C757265007CB5002508231EA25D
:10383000294605200095FEF780FB012408231DA2E0
:10384000194605200094FEF778FB08231DA21021DD
:1038500005200094FEF771FB08231DA21821052006
:103860000094FEF76AFB1D48CDE9000518231A46AF
:1038700000215820FEF713FBFDF71CF918481949E1
:103880004FF008030068009408441749884201D8A3
:1038900016A200E017A218215020FEF74EFBBDE84B
:1038A0007C40FEF725B900005044203556203341B6
:1038B000200000005044205143203956203341203D
:1038C00000000000514320313256203341200000D7
:1038D0005044203135562033412000007C01002027
:1038E00004050020666676BF6666360073756363FE
:1038F000657373006673696C757265007CB501242D
:1039000008231EA2002105200094FEF716FB0025C7
:1039100008231DA2194605200095FEF70EFB08237B
:103920001DA2102105200094FEF707FB08231DA20D
:10393000182105200094FEF700FB1D48CDE9000585
:1039400018231A4600215820FEF7A9FAFDF7B2F80D
:10395000184819494FF008030068009408441749B3
:10396000884201D216A200E017A218215020FEF7CB
:10397000E4FABDE87C40FEF7BBB8000050442035B7
:103980005620334120000000504420514320395636
:1039900020334120000000005143203132562033B3
:1039A0004120000050442031355620334120000092
:1039B0007C01002004050020CCCCFCBE99991900A4
:1039C00073756363657373006673696C7572650004
:1039D000FEE700000FB4054B10B503A9044A029896
:1039E00000F018F810BC5DF814FB0000853C0008DE
:1039F0001C00002002E008C8121F08C1002AFAD1EA
:103A000070477047002001E001C1121F002AFBD15E
:103A1000704700002DE9FF4F89B09B460446002502
:103A200006E025280BD05A460B999047641C6D1C64
:103A300020780028F5D10DB02846BDE8F08F00278A
:103A4000B8460122474900E0074314F8013F203BF4
:103A500002FA03F00842F7D120782E2819D114F881
:103A6000010F47F004072A280ED06FF02F022078AC
:103A7000A0F1300109290CD808EB880102EB4101C3
:103A800000EB0108641CF2E70A98641C50F8048BF0
:103A90000A9020780028CED0642808D0692806D063
:103AA00075281ED05A460B9990476D1C58E00A990C
:103AB0004FF00A0901C90A91002802DA40422D217B
:103AC00002E0390504D52B218DF82010012103E0F7
:103AD000F90704D02021F7E78A4608AE0DE000215F
:103AE000FAE70A994FF00A0901C90A91F7E749462E
:103AF000FCF728FE303106F8011D0028F7D1ADEBA8
:103B0000060000F12009780701D44FF00108C845EC
:103B100002DDA8EB090000E000208046002706E057
:103B200008A85A46C05D0B9990476D1C7F1C5745ED
:103B3000F6DB04E030205A460B9990476D1CB8F133
:103B40000001A8F10108F5DC05E016F8010B5A4662
:103B50000B9990476D1CB9F10001A9F10109F4DC42
:103B6000641C65E7092801000C4910B50C4A0B7864
:103B70000024118840B1012805D1092B03D1002967
:103B800001D0491E118010BD092BFCD1B1F5FA6F8F
:103B900001D3148010BD491CF4E70000A0000020F0
:103BA000700100200C490D4A0B78116850B10128B2
:103BB00011D1122B0FD109B1491E116011780820C3
:103BC000FDF792B8122B06D1142902D314201060ED
:103BD000F4E7491CF1E77047A000002078010020BD
:103BE00010B56FF00400FEF723FC0948094900688E
:103BF000B0FBF1F0C1B2084801EB41020170C2EB29
:103C0000C1114FF6FF7202EAC101418010BD0000F0
:103C10002000002000127A00140000200B4949887F
:103C200048434FF0E021486100228A61086940F072
:103C3000010008610869C30701D0C003FAD508690B
:103C400020F0010008618A61704700001400002024
:103C50000B49097848434FF0E021486100228A610E
:103C6000086940F0010008610869C30701D0C0037A
:103C7000FAD5086920F0010008618A6170470000E8
:103C80001400002004490A885206FCD5024AC1B239
:103C9000121D118070470000003801404FF4407041
:103CA000FDF778FDFFF79CFFFEF7E4FBFDF77CFED8
:103CB0004FF4E15421464FF47A70FEF7A3F9FDF773
:103CC00073FDFDF7E3FBFCF757FEFDF729F82146EE
:103CD00041F65830FEF7E8FC214642F21070FEF73C
:103CE0002FFC200100F064F8FCF7C6FFFCF7D0FFC2
:103CF000014608A0FFF76EFEFEF7E4FB07480078D8
:103D0000FDF780FD06480078FDF788FDFDF7D4FB40
:103D1000FCE7000025640D0A000000005B000020A5
:103D200059000020FEF7AEBE0020FFF7ABB804201C
:103D3000FFF7A8B8FFF7E2BDFFF776BD0320FFF756
:103D4000A1B8FFF705BDFFF7E5BBFFF797BC06205D
:103D5000FFF798B80720FFF795B8FFF725BC0520B7
:103D6000FFF790B8FEF7D4BF0220FFF78BB8FFF73C
:103D700041B8FEF783BF0120FFF784B8FFF784BB8B
:103D8000FFF718B8FEF730BFFFF7A2BBFFF75ABB2B
:103D9000FEF70ABF0548816B496821B1816B49690B
:103DA0004968816270474FF0FF31FAE760000020F8
:103DB00070B5054686B0012144F20500FEF7ACF966
:103DC0004FF40070ADF8100003248DF81240182055
:103DD0001D4E8DF8130004A93046FDF755F9301536
:103DE000ADF8100004208DF8130004A93046FDF74B
:103DF0004BF925208DF814008DF815408DF81640EC
:103E000001208DF8170005A8FDF792FC0020ADF801
:103E10000400ADF80600ADF80800ADF80C000C2069
:103E20000A4CADF80A00009569462046FEF7D0FD21
:103E3000012240F225512046FEF7B1FD0121204626
:103E4000FEF784FD06B070BD000801400038014057
:103E50000D48416B11B10121C16170470021C16161
:103E600001690A4AB1FA81F1C1F11F0102EB411166
:103E700001F10C038A6892688A609A4201D19268C3
:103E80008A601169016070476000002014050020FD
:103E90002DE9F041414C0026606B28B1A069401C1F
:103EA000A0613046BDE8F081E5686D1CE56008D191
:103EB000A06BE16BA163E063206A401C2062FFF706
:103EC00069FFA16A36488D420FD34FF0000EA16BF7
:103ED000496839B1A16B496909698A68954211D26B
:103EE000A26202E04FF0FF31A1622168C96B00EBD2
:103EF00041104068012800D90126E0690028D0D08F
:103F00000126CEE7D1E903728B69FA60D1E9032774
:103F1000BA609F680A1D974201D10F699F60C1F87E
:103F200018E05F687F1E5F60D1F834C0BCF1000FFD
:103F300015D0D1E90A37DF60D1E90A37BB60DCF878
:103F4000087001F120039F4202D1CB6ACCF80830FF
:103F5000C1F834E0DCF804305B1ECCF80430CB6BE5
:103F60000127D4F810C09F4047EA0C07276100EBF7
:103F700043139B68CB60DF680F61DF68BA60DA606B
:103F8000CA6B00EB42128A6153685B1C5360C96BB9
:103F90002268D26B91429AD3012698E760000020F4
:103FA000140500200000000000000000002F0000A9
:103FB00000000700070000147F147F1400242A7FEC
:103FC0002A1200626408132300364955225000006B
:103FD0000503000000001C224100000041221C00DB
:103FE0000014083E08140008083E0808000000A05D
:103FF0006000000808080808000060600000002059
:1040000010080402003E5149453E0000427F400036
:10401000004261514946002141454B3100181412BC
:104020007F10002745454539003C4A494930000189
:104030007109050300364949493600064949291ED8
:10404000000036360000000056360000000814223A
:10405000410000141414141400004122140800023A
:104060000151090600324959513E007C1211127C5F
:10407000007F49494936003E41414122007F41418C
:10408000221C007F49494941007F09090901003E7E
:104090004149497A007F0808087F0000417F4100BC
:1040A000002040413F01007F08142241007F404032
:1040B0004040007F020C027F007F0408107F003E1A
:1040C0004141413E007F09090906003E4151215E00
:1040D000007F091929460046494949310001017FFD
:1040E0000101003F4040403F001F2040201F003F93
:1040F0004038403F00631408146300070870080745
:1041000000615149454300007F41410000552A5557
:104110002A55000041417F000004020102040040D2
:1041200040404040000001020400002054545478F4
:10413000007F484444380038444444200038444414
:10414000487F00385454541800087E0901020018B2
:10415000A4A4A47C007F080404780000447D4000EF
:10416000004080847D00007F102844000000417FD3
:104170004000007C04180478007C080404780038AF
:104180004444443800FC242424180018242418FC37
:10419000007C0804040800485454542000043F44A0
:1041A0004020003C4040207C001C2040201C003C63
:1041B0004030403C004428102844001CA0A0A07CB3
:1041C000004464544C4414141414141400000000EB
:1041D00000000000000000000000FC0000000000E3
:1041E00002000000000C020C0200000000000000B1
:1041F00090D0BCD0BC900003000300001824FE4403
:104200008C000302070201001824D8B04C80000380
:1042100000010201C038E438E0000102020102029C
:10422000080600000000000000000000000000F888
:104230000402000000010204000204F8000000046F
:10424000020100009060F860900000000100000092
:104250002020FC20200000000100000000000000E1
:1042600000000806000000002020202020000000A0
:10427000000000000000000000000002000000003C
:104280000080601C0200040300000000F804040425
:10429000F8000102020201000008FC000000000218
:1042A00003020000188444241800030202020200E2
:1042B00008042424D80001020202010040B088FC56
:1042C00080000000000302003C242424C4000102FA
:1042D00002020100F824242CC000010202020100A5
:1042E0000C04E41C0400000003000000D824242473
:1042F000D80001020202010038444444F8000003DF
:104300000202010000001000000000000200000096
:10431000000020000000000006000000002050887F
:1043200004020000000001029090909090000000B4
:10433000000000000002048850200002010000007C
:104340001804C4241800000002000000F804E494DB
:10435000F80001020202020000E09CF0800002036B
:104360000000030204FC2424D8000203020201001E
:10437000F80404040C0001020202010004FC04041D
:10438000F80002030202010004FC24740C00020382
:104390000202030004FC24740C000203020000006B
:1043A000F0080444CC4000010202010004FC20207B
:1043B000FC040203000003020404FC0404000202E3
:1043C00003020200000404FC0404060404030000C9
:1043D00004FC24D00C0402030200030204FC0400C9
:1043E0000000020302020203FC3CC03CFC0003008C
:1043F0000300030004FC30C4FC04020302000300B9
:10440000F8040404F80001020202010004FC242460
:104410001800020302000000F8848404F80001027E
:104420000207050004FC2464980002030200030252
:10443000182424448C000302020201000C04FC0432
:104440000C0000020302000004FC0000FC04000158
:1044500002020100047C80E01C0400000300000054
:104460001CE03CE01C00000300030000049C609C76
:104470000400020300030200041CE01C040000020C
:10448000030200000C84641C040002030202030007
:104490000000FE020200000007040400000E30C00D
:1044A0000000000000010200000202FE0000000403
:1044B00004070000000402040000000000000000E7
:1044C00000000000000008080808080800000200BA
:1044D00000000000000000000040A0A0C00000019B
:1044E0000202030204FC2020C000000302020100BB
:1044F00000C02020600000010202020000C0202451
:10450000FC0000010202030200C0A0A0C0000001E4
:10451000020202000020F824240400020302020028
:104520000040A0A0602000070A0A0A0404FC202022
:10453000C0000203020003020020E40000000002A9
:1045400003020000000020E4000008080807000043
:1045500004FC80E020200203020003020404FC00AB
:104560000000020203020200E020E020C00003007D
:104570000300030020E02020C00002030200030229
:1045800000C02020C00000010202010020E0202025
:10459000C000080F0A02010000C02020E000000156
:1045A000020A0F0820E04020200002030200000061
:1045B0000060A0A020000002020203000020F820FA
:1045C000000000000102020020E00020E0000001E5
:1045D0000202030220E020806020000003010000AE
:1045E0006080E080600000030003000020608060C5
:1045F000200002030003020020E020806020080861
:10460000070100000020A060200000020302020059
:10461000000020DE0200000000070400000000FF90
:1046200000000000000F00000002DE200000000477
:104630000700000002010204040200000000000064
:10464000000000000000000000000000000000006A
:10465000000000F8000000000000003330000000FF
:1046600000100C06100C0600000000000000000006
:1046700040C07840C0784000043F04043F04040078
:10468000007088FC08300000001820FF211E000088
:10469000F008F000E018000000211C031E211E009D
:1046A00000F00888700000001E2123241927211023
:1046B00010160E00000000000000000000000000C6
:1046C000000000E01804020000000007182040006D
:1046D00000020418E000000000402018070000005D
:1046E000404080F0804040000202010F01020200C1
:1046F000000000F0000000000101011F01010100A5
:10470000000000000000000080B070000000000009
:104710000000000000000000000101010101010192
:104720000000000000000000003030000000000029
:1047300000000000806018040060180601000000FE
:1047400000E010080810E000000F102020100F00FB
:10475000001010F8000000000020203F2020000082
:1047600000700808088870000030282422213000DA
:1047700000300888884830000018202020110E00E2
:104780000000C02010F8000000070424243F24008B
:1047900000F80888880808000019212020110E0060
:1047A00000E0108888180000000F112020110E0072
:1047B00000380808C83808000000003F000000006A
:1047C0000070880808887000001C222121221C002B
:1047D00000E010080810E0000000312222110F0054
:1047E000000000C0C00000000000003030000000E9
:1047F0000000008000000000000080600000000059
:104800000000804020100800000102040810200071
:1048100040404040404040000404040404040400BC
:104820000008102040800000002010080402010051
:10483000007048080808F000000000303601000051
:10484000C030C828E810E0000718272423140B0004
:104850000000C038E0000000203C2302022738207E
:1048600008F8888888700000203F202020110E0062
:10487000C030080808083800071820202010080059
:1048800008F808080810E000203F202020100F0042
:1048900008F88888E8081000203F2020232018000E
:1048A00008F88888E8081000203F20000300000076
:1048B000C03008080838000007182020221E020017
:1048C00008F808000008F808203F210101213F20D6
:1048D000000808F8080800000020203F2020000001
:1048E00000000808F8080800C08080807F000000F1
:1048F00008F888C028180800203F2001263820002A
:1049000008F8080000000000203F20202020300090
:1049100008F8F800F8F80800203F003F003F2000AA
:1049200008F830C00008F808203F200007183F00B2
:10493000E01008080810E0000F10202020100F00E1
:1049400008F808080808F000203F210101010000D4
:10495000E01008080810E0000F18242438504F0019
:1049600008F8888888887000203F2000030C3020D9
:1049700000708808080838000038202121221C0017
:10498000180808F8080818000000203F2000000060
:1049900008F808000008F808001F202020201F0049
:1049A0000878880000C83808000007380E010000A9
:1049B000F80800F80008F800033C0700073C030073
:1049C000081868808068180820302C03032C3020D9
:1049D0000838C800C83808000000203F2000000048
:1049E00010080808C83808002038262120201800A0
:1049F000000000FE020202000000007F4040400074
:104A0000000C30C000000000000000010638C000AB
:104A100000020202FE000000004040407F00000053
:104A20000000040202020400000000000000000078
:104A30000000000000000000808080808080808076
:104A4000000202040000000000000000000000005E
:104A500000008080808000000019242222223F2054
:104A600008F8008080000000003F112020110E0097
:104A70000000008080800000000E11202020110026
:104A8000000000808088F800000E112020103F20D8
:104A90000000808080800000001F2222222213005C
:104AA000008080F0888888180020203F20200000A7
:104AB0000000808080808000006B9494949360005C
:104AC00008F8008080800000203F210000203F2067
:104AD00000809898000000000020203F2020000067
:104AE000000000809898000000C08080807F000057
:104AF00008F8000080808000203F24022D30200034
:104B0000000808F8000000000020203F20200000DE
:104B10008080808080808000203F20003F20003FF8
:104B20008080008080800000203F210000203F2006
:104B30000000808080800000001F202020201F00B7
:104B4000808000808000000080FFA12020110E00E6
:104B50000000008080808000000E112020A0FF80D7
:104B6000808080008080800020203F212000010084
:104B700000008080808080000033242424241900D9
:104B8000008080E0808000000000001F20200000E6
:104B90008080000000808000001F202020103F2027
:104BA000808080000080808000010E3008060100B7
:104BB00080800080008080800F300C030C300F005C
:104BC00000808000808080000020312E0E31200087
:104BD000808080000080808080818E7018060100B7
:104BE00000808080808080000021302C22213000D5
:104BF00000000000807C020200000000003F4040F6
:104C000000000000FF00000000000000FF000000A6
:104C10000002027C800000000040403F00000000D5
:104C20000006010102020404000000000000000070
:104C30000000000000000000000000000000000074
:104C40000000000000000000000000000000000064
:104C5000000000000000000000F0F0F00000000084
:104C60000000000000017F010000000000000000C3
:104C7000001C1C1C0000000000008060301C8C60C8
:104C8000301C0C00000000000000000000000000CC
:104C9000000000000000000000000000000000E034
:104CA0000000000000E000000086E69F8686868601
:104CB000E69F860000011F01010101011F010100A3
:104CC000000080C06020F820E0C000000000030762
:104CD0000C18FF70E18100000000070F10107F101A
:104CE0000F0700008060206080000000E0200000CE
:104CF0000F3020309F70DC371030C0000000100EE5
:104D000003000718101807000000C02020E0C000B2
:104D10000000000080E01F38E88703C43C04000066
:104D2000070F1810100B070D1010080000808C4C96
:104D3000380000000000000000000000000000003B
:104D40000000000000000000000000000000000063
:104D500000000000000080E03008040000000000B7
:104D600000FEFF0100000000000000000000030F33
:104D70001820400000040830E0800000000000001F
:104D80000000000001FFFE000000000000402018AD
:104D90000F03000000000000000000000000C00041
:104DA00000000000004266663C18FF183C66664240
:104DB00000000000000003000000000000000000F0
:104DC0000000800000000000001010101010FF1004
:104DD0001010101000000000000003000000000090
:104DE00000000000000000000000000000000000C3
:104DF000000000000000000000808C4C3800000023
:104E000000000000000000000000000000000000A2
:104E100000101010101010101010100000000000F2
:104E20000000000000000000000000000000000082
:104E30000000000000000000000000000000000072
:104E400000001C1C1C00000000000000000000000E
:104E500000000000E0380C000000000080701C031F
:104E6000000000000060380E01000000000000009B
:104E7000000080C0E06030302060E0C000FFFFFF35
:104E800000000000000001FF0001070F0E1C1818B1
:104E9000180C0F07000000808080C0E0F0000000C8
:104EA00000000000000000FFFF0000000000000004
:104EB0000000001F1F000000000080C0E0602020F4
:104EC0002060E0C0000003030380C0E070381F0FC3
:104ED00000181E1F1F1B191818181818000080C072
:104EE000E06020202060E0C00000010101001010FF
:104EF000183CEFE70000070F0C181818181C0F0FCC
:104F000000000000000080C0E0F0F00000C0E0F809
:104F1000BC8E878380FFFF80000101010101010138
:104F2000011F1F01000000E0E060606060606060E1
:104F300000001E1F1F0C0404040CFCF80000070FE7
:104F40000C181818180C0F07000000C0E060602053
:104F50002060E0C00000FFFF31180C0C0C1CF9F9B8
:104F6000000003070F1C1818181C0F0700006060D2
:104F7000606060606060E0E000000000000000C071
:104F8000F87F0F030000000000181F0F030000004F
:104F9000000080C0E06020202060E0C00080C7EFFB
:104FA0002C3810101038EFE70003070F1C181818E2
:104FB000181C0E0F000080C0E060202060E0C08060
:104FC00000001F3F706060602030FFFF0000060E91
:104FD0001C1818181C0E0F03000000000000000031
:104FE0000000000000000000000E0E0E0000000097
:104FF00000000000001C1C1C00000000000000005D
:10500000000000000000000000000000000C0C0088
:105010000000000000000000005838000000000000
:105020000000000000000080402010000000102858
:1050300044820100000000000000000000000102A6
:105040000408100000000000000000000000000044
:105050000084848484848484848484000000000028
:105060000000000000000000000010204080000050
:105070000000000000000000000001824428100031
:1050800000001008040201000000000000C0202001
:105090001010101030E0C0000003030000F01008F2
:1050A0000C070300000000001C1C1C000000000096
:1050B000000000C0406020202040C00000FCFF0134
:1050C000F00E03C1FE03807F0001070E08111110CE
:1050D000110904020000000080E0E0000000000070
:1050E0000000807C4340477FF880000010181F10AC
:1050F00000000000131F1C1020E0E0202020206092
:10510000C080000000FFFF10101010182FE7800073
:10511000101F1F1010101010180F0700000080C083
:10512000402020202060E00000FCFF010000000083
:10513000000001000001070E181010100804030001
:1051400020E0E02020202040C080000000FFFF0081
:105150000000000001FFFE00101F1F1010101808B3
:105160000E07010020E0E0202020202020608000A9
:1051700000FFFF101010107C00000000101F1F1017
:10518000101010101018060020E0E0202020202031
:105190006060800000FFFF101010107C0000010014
:1051A000101F1F100000000000000000000080C061
:1051B0006020202040E0000000FCFF010000404093
:1051C000C0C140400001070E181010100F0F000062
:1051D00020E0E0200000000020E0E02000FFFF10C1
:1051E0001010101010FFFF00101F1F100000000013
:1051F000101F1F100000202020E0E02020200000D1
:105200000000000000FFFF00000000000000101080
:10521000101F1F101010000000000000202020E0D0
:10522000E020202000000000000000FFFF00000040
:105230000060E0808080C07F3F00000020E0E02030
:10524000000020A06020200000FFFF30187CE3C099
:1052500000000000101F1F10000001131F1C181079
:1052600020E0E020000000000000000000FFFF0040
:105270000000000000000000101F1F101010101090
:105280001018060020E0E0E000000000E0E0E02070
:1052900000FF013FFEC0E01E01FFFF00101F1000D5
:1052A000031F0300101F1F1020E0E0C000000000DB
:1052B0000020E02000FF0003071C78E08000FF00D2
:1052C000101F100000000000030F1F00000080C02E
:1052D00060202060C080000000FEFF010000000090
:1052E00000FFFE000001070E181010180C07010047
:1052F00020E0E0202020202060C0800000FFFF2070
:1053000020202020301F0F00101F1F100000000061
:1053100000000000000080C060202060C08000000D
:1053200000FEFF010000000000FFFE000001070E6C
:105330001111133C7C67210020E0E0202020202078
:1053400060C0800000FFFF101030F0D0080F070091
:10535000101F1F10000000030F1C10100080C06001
:10536000202020204040E00000070F0C18183030AB
:1053700060E08100001F0C0810101010180F0700CB
:105380008060202020E0E0202020608001000000DC
:1053900000FFFF000000000100000000101F1F10B0
:1053A0000000000020E0E020000000000020E020DD
:1053B00000FFFF00000000000000FF0000070F18C2
:1053C00010101010100807002060E0E0200000001E
:1053D00020E060200000077FF88000807C03000050
:1053E00000000000071F1C070000000020E0E02074
:1053F00000E0E0200020E0200007FFF8E01FFFFCB5
:10540000E01F00000000031F0300011F0300000055
:10541000002060E0A0000020E06020000000000309
:105420008F7CF8C6010000000010181E1300011741
:105430001F1810002060E0E02000000020E0602045
:10544000000001073EF8E01807000000000000100F
:10545000101F1F101000000000806020202020A0DE
:10546000E0E0200000000000C0F03E0F030000005C
:1054700000101C1F1710101010180600000000006C
:1054800000FC0404040404000000000000FF00000D
:105490000000000000000000007F4040404040004D
:1054A000000010E00000000000000000000000000C
:1054B000031C6080000000000000000000000003EA
:1054C0000C70800000000404040404FC00000000D0
:1054D00000000000000000FF00000000000040404D
:1054E0004040407F0000000000000010080C040C49
:1054F0000810000000000000000000000000000094
:10550000000000000000000000000000000000009B
:10551000000000000000000000000000000000008B
:10552000000000008080808080808080808080807B
:105530000000000404080800000000000000000053
:10554000000000000000000000000000000000005B
:10555000000000000000000000000000000000004B
:10556000000098D844642424FCF80000000F1F18A1
:10557000101010081F1F10180020E0F0000000009D
:10558000000000000000FFFF180804040CF8F00001
:1055900000001F0F18101010180F0300000000006B
:1055A000000000000000000000E0F8180404043CC3
:1055B0003800000000030F0C101010100806000047
:1055C0000000000000000020E0F0000000E0F81CF7
:1055D00004040408FFFF000000030F181010100857
:1055E0001F0F080000000000000000000000000085
:1055F0000000E0F8484444444C7870000000030F79
:105600000C181010100804000000000080C060207A
:1056100020E0C00000040404FFFF040404040000B0
:10562000000010101F1F10101000000000000000EC
:105630000000000000000000000070F88C04048CE2
:10564000F874040C007076CF8D8D8D89C878700049
:105650000020E0F000000000000000000000FFFF5C
:1056600008040404FCF8000000101F1F10000010C4
:105670001F1F10000000000000606000000000001C
:105680000000040404FCFC000000000000001010F6
:10569000101F1F101010000000000000000000602C
:1056A0006000000000000000040404FCFC00000096
:1056B0000000C0C08080C07F3F0000000020E0F0FC
:1056C00000000000000000000000FFFF80C0F41C8C
:1056D0000404000000101F1F1100031F1C10100005
:1056E0000000202020E0F00000000000000000008A
:1056F00000FFFF000000000000001010101F1F102E
:105700001010000000000000000000000000000079
:1057100004FCFC0804FCFC0804FCFC00101F1F1027
:10572000001F1F10001F1F100000000000000000DD
:10573000000000000004FCFC08080404FCF8000061
:1057400000101F1F100000101F1F1000000000009D
:10575000000000000000000000E0F0180C04040C41
:1057600018F0E00000030F0C101010100C0F0300D5
:105770000000000000000000000000000004FCFC2D
:10578000080404040CF8F0000080FFFF889010105B
:105790001C0F0300000000000000000000000000DB
:1057A00000E0F81C04040408F8FC000000030F18D3
:1057B00010109088FFFF8000000000000000000033
:1057C00000000000040404FCFC100804040C0C009D
:1057D0001010101F1F10101000000000000000002B
:1057E000000000000000000000003078CCC4848479
:1057F000840C1C0000001E1810101011190F060058
:105800000000000000C000000000000000040404CC
:10581000FFFF040404000000000000000F1F101030
:10582000100C00000000000000000000000000005C
:105830000004FCFE00000004FCFE000000000F1F3E
:10584000181010081F0F08000000000000000000E2
:105850000000000000040C3CFCC40000C43C0C042C
:1058600000000000010F1E0E0100000000000000FB
:105870000000000000000000043CFCC400E47CFCCC
:1058800084807C040000071F070000071F0700003A
:105890000000000000000000000000000004041CE4
:1058A0007CE4C0341C0404000010101C1601131FFB
:1058B0001C181000000000000000000000000000A4
:1058C00000040C3CFCC400C43C0404000000C08084
:1058D000C1370E01000000000000000000000000C1
:1058E0000000000000001C0404C4F47C1C04000040
:1058F0000000101C1F17111010180E0000000000EF
:10590000000000F80C04000000000000001028EF68
:1059100000000000000000000000003F60400000A8
:10592000000000000000FF00000000000000000078
:105930000000FF0000000000000000000000FF0069
:10594000000000000000040CF8000000000000004F
:1059500000000000EF281000000000000000406080
:105960003F000000000000000018060202040810BA
:1059700020203008000000000000000000000000AF
:1059800000000000000000000000000000000C12F9
:10599000120C0000000000000000000000000000E9
:1059A000000000000000000000000000080888FF60
:1059B0004848000848FF0808F8000000816508070B
:1059C00020C0080423C0030023C40F000000F8080F
:1059D00088888888FF8888882818000080601F8051
:1059E0008043442810284443808080000000FE2229
:1059F00022FE00101010FF101010000080601F42E7
:105A0000827F8141310D030D314181001060028C94
:105A10000000FE9292929292FE00000004047E0129
:105A2000407E42427E427E42427E40000000FC2494
:105A30002424FC252624FC242424040040308F80C8
:105A4000844C55252525554C808080004040407C65
:105A5000404040FF444444444440400080908846D5
:105A60004040202F10100804020000009052341013
:105A7000FF10345280708F0808F80800829A56632D
:105A800022528E008040330C33408000008060F84A
:105A90000700FC848484FE8283828000010000FF72
:105AA0000000FF402000418E3040F800080808F850
:105AB0000808081010FF101010F000001030101F20
:105AC000088848300E014080403F000088A8A8FFA9
:105AD000A8A888004444FC2223220000201806FFC6
